{
  "address": "0xB42BBF4FDDe8E0bfB873993a8c8e6f93AF232B48",
  "abi": [
    {
      "inputs": [
        {
          "internalType": "address",
          "name": "_admin",
          "type": "address"
        },
        {
          "internalType": "address payable",
          "name": "_treasury",
          "type": "address"
        },
        {
          "internalType": "uint256",
          "name": "_fee",
          "type": "uint256"
        }
      ],
      "stateMutability": "nonpayable",
      "type": "constructor"
    },
    {
      "anonymous": false,
      "inputs": [
        {
          "indexed": false,
          "internalType": "address",
          "name": "player",
          "type": "address"
        },
        {
          "indexed": false,
          "internalType": "uint256",
          "name": "reward",
          "type": "uint256"
        },
        {
          "indexed": false,
          "internalType": "uint256",
          "name": "newBalance",
          "type": "uint256"
        },
        {
          "indexed": false,
          "internalType": "uint256",
          "name": "wins",
          "type": "uint256"
        }
      ],
      "name": "FightWon",
      "type": "event"
    },
    {
      "anonymous": false,
      "inputs": [
        {
          "indexed": false,
          "internalType": "address",
          "name": "player",
          "type": "address"
        },
        {
          "indexed": false,
          "internalType": "uint256",
          "name": "userBalance",
          "type": "uint256"
        },
        {
          "indexed": false,
          "internalType": "uint256",
          "name": "feeAmount",
          "type": "uint256"
        },
        {
          "indexed": false,
          "internalType": "uint256",
          "name": "amountPayedOut",
          "type": "uint256"
        }
      ],
      "name": "RewardsClaimed",
      "type": "event"
    },
    {
      "anonymous": false,
      "inputs": [
        {
          "indexed": false,
          "internalType": "address",
          "name": "player",
          "type": "address"
        },
        {
          "indexed": false,
          "internalType": "uint256",
          "name": "tokenId",
          "type": "uint256"
        }
      ],
      "name": "TransferBack",
      "type": "event"
    },
    {
      "inputs": [],
      "name": "admin",
      "outputs": [
        {
          "internalType": "address",
          "name": "",
          "type": "address"
        }
      ],
      "stateMutability": "view",
      "type": "function"
    },
    {
      "inputs": [
        {
          "internalType": "uint256",
          "name": "tokenId",
          "type": "uint256"
        }
      ],
      "name": "adminUnlockNFT",
      "outputs": [],
      "stateMutability": "nonpayable",
      "type": "function"
    },
    {
      "inputs": [
        {
          "internalType": "uint256",
          "name": "_tokenid",
          "type": "uint256"
        },
        {
          "internalType": "uint256",
          "name": "boss_number",
          "type": "uint256"
        }
      ],
      "name": "autofight",
      "outputs": [
        {
          "internalType": "bool",
          "name": "",
          "type": "bool"
        }
      ],
      "stateMutability": "nonpayable",
      "type": "function"
    },
    {
      "inputs": [
        {
          "internalType": "address",
          "name": "",
          "type": "address"
        }
      ],
      "name": "balances",
      "outputs": [
        {
          "internalType": "uint256",
          "name": "",
          "type": "uint256"
        }
      ],
      "stateMutability": "view",
      "type": "function"
    },
    {
      "inputs": [],
      "name": "claimRewards",
      "outputs": [
        {
          "internalType": "uint256",
          "name": "",
          "type": "uint256"
        }
      ],
      "stateMutability": "nonpayable",
      "type": "function"
    },
    {
      "inputs": [],
      "name": "fee",
      "outputs": [
        {
          "internalType": "uint256",
          "name": "",
          "type": "uint256"
        }
      ],
      "stateMutability": "view",
      "type": "function"
    },
    {
      "inputs": [],
      "name": "feePercent",
      "outputs": [
        {
          "internalType": "uint256",
          "name": "",
          "type": "uint256"
        }
      ],
      "stateMutability": "view",
      "type": "function"
    },
    {
      "inputs": [
        {
          "internalType": "address",
          "name": "",
          "type": "address"
        }
      ],
      "name": "gamesWon",
      "outputs": [
        {
          "internalType": "uint256",
          "name": "",
          "type": "uint256"
        }
      ],
      "stateMutability": "view",
      "type": "function"
    },
    {
      "inputs": [
        {
          "internalType": "uint256",
          "name": "tokenId",
          "type": "uint256"
        }
      ],
      "name": "heroStates",
      "outputs": [
        {
          "internalType": "enum MaticVerseFarmer.NFTState",
          "name": "",
          "type": "uint8"
        }
      ],
      "stateMutability": "view",
      "type": "function"
    },
    {
      "inputs": [
        {
          "internalType": "address",
          "name": "",
          "type": "address"
        },
        {
          "internalType": "address",
          "name": "from",
          "type": "address"
        },
        {
          "internalType": "uint256",
          "name": "tokenId",
          "type": "uint256"
        },
        {
          "internalType": "bytes",
          "name": "",
          "type": "bytes"
        }
      ],
      "name": "onERC721Received",
      "outputs": [
        {
          "internalType": "bytes4",
          "name": "",
          "type": "bytes4"
        }
      ],
      "stateMutability": "nonpayable",
      "type": "function"
    },
    {
      "inputs": [
        {
          "internalType": "uint256",
          "name": "",
          "type": "uint256"
        }
      ],
      "name": "ownership",
      "outputs": [
        {
          "internalType": "address",
          "name": "",
          "type": "address"
        }
      ],
      "stateMutability": "view",
      "type": "function"
    },
    {
      "inputs": [
        {
          "internalType": "address",
          "name": "player",
          "type": "address"
        },
        {
          "internalType": "uint256",
          "name": "index",
          "type": "uint256"
        }
      ],
      "name": "playerHeroes",
      "outputs": [
        {
          "internalType": "uint256",
          "name": "",
          "type": "uint256"
        }
      ],
      "stateMutability": "view",
      "type": "function"
    },
    {
      "inputs": [
        {
          "internalType": "address",
          "name": "_admin",
          "type": "address"
        }
      ],
      "name": "setAdmin",
      "outputs": [],
      "stateMutability": "nonpayable",
      "type": "function"
    },
    {
      "inputs": [
        {
          "internalType": "uint256",
          "name": "_fee",
          "type": "uint256"
        }
      ],
      "name": "setFee",
      "outputs": [],
      "stateMutability": "nonpayable",
      "type": "function"
    },
    {
      "inputs": [
        {
          "internalType": "address payable",
          "name": "_treasury",
          "type": "address"
        }
      ],
      "name": "setTreasury",
      "outputs": [],
      "stateMutability": "nonpayable",
      "type": "function"
    },
    {
      "inputs": [
        {
          "internalType": "uint256",
          "name": "tokenId",
          "type": "uint256"
        }
      ],
      "name": "transferBack",
      "outputs": [],
      "stateMutability": "nonpayable",
      "type": "function"
    },
    {
      "inputs": [],
      "name": "treasury",
      "outputs": [
        {
          "internalType": "address payable",
          "name": "",
          "type": "address"
        }
      ],
      "stateMutability": "view",
      "type": "function"
    },
    {
      "inputs": [
        {
          "internalType": "uint256",
          "name": "tokenId",
          "type": "uint256"
        }
      ],
      "name": "unlockNFT",
      "outputs": [],
      "stateMutability": "payable",
      "type": "function"
    },
    {
      "stateMutability": "payable",
      "type": "receive"
    }
  ],
  "transactionHash": "0x56c7c09487d1fc086ee0a12f55fb3fe79a5bcef8a1d1a316c50da81f818b97d9",
  "args": [
    "0x15Ba7233c3266e62d4E7EF36a4F1b403ae376214",
    "0x761Dfa4C8e566D39E006DC86b596FaA43f81A64b",
    "30000000000000000000"
  ],
  "solcInputHash": "4c1fc69ae20a00269d414e3561f876f2",
  "bytecode": "0x6080604052600060025560006004553480156200001b57600080fd5b506040516200275c3803806200275c833981810160405281019062000041919062000117565b816000806101000a81548173ffffffffffffffffffffffffffffffffffffffff021916908373ffffffffffffffffffffffffffffffffffffffff16021790555082600160006101000a81548173ffffffffffffffffffffffffffffffffffffffff021916908373ffffffffffffffffffffffffffffffffffffffff160217905550806003819055505050506200020d565b600081519050620000e381620001bf565b92915050565b600081519050620000fa81620001d9565b92915050565b6000815190506200011181620001f3565b92915050565b6000806000606084860312156200012d57600080fd5b60006200013d86828701620000d2565b93505060206200015086828701620000e9565b9250506040620001638682870162000100565b9150509250925092565b60006200017a8262000195565b9050919050565b60006200018e8262000195565b9050919050565b600073ffffffffffffffffffffffffffffffffffffffff82169050919050565b6000819050919050565b620001ca816200016d565b8114620001d657600080fd5b50565b620001e48162000181565b8114620001f057600080fd5b50565b620001fe81620001b5565b81146200020a57600080fd5b50565b61253f806200021d6000396000f3fe60806040526004361061010d5760003560e01c8063b5055ef511610095578063eaf316a011610064578063eaf316a014610401578063f0f442601461043e578063f416a09f14610467578063f826276c146104a4578063f851a440146104c05761017b565b8063b5055ef514610333578063d7b2ab4914610370578063ddca3f43146103ad578063eae7236f146103d85761017b565b806361d027b3116100dc57806361d027b31461024e57806369fe0e2d14610279578063704b6c02146102a25780637fd6f15c146102cb578063a0f45b69146102f65761017b565b8063150b7a021461018057806327e235e3146101bd578063372500ab146101fa57806350c170bc146102255761017b565b3661017b5760008054906101000a900473ffffffffffffffffffffffffffffffffffffffff1673ffffffffffffffffffffffffffffffffffffffff166108fc349081150290604051600060405180830381858888f19350505050158015610178573d6000803e3d6000fd5b50005b600080fd5b34801561018c57600080fd5b506101a760048036038101906101a29190611cae565b6104eb565b6040516101b49190611f9e565b60405180910390f35b3480156101c957600080fd5b506101e460048036038101906101df9190611c5c565b610618565b6040516101f19190612034565b60405180910390f35b34801561020657600080fd5b5061020f610630565b60405161021c9190612034565b60405180910390f35b34801561023157600080fd5b5061024c60048036038101906102479190611d8e565b610d82565b005b34801561025a57600080fd5b50610263610f42565b6040516102709190611efa565b60405180910390f35b34801561028557600080fd5b506102a0600480360381019061029b9190611d8e565b610f66565b005b3480156102ae57600080fd5b506102c960048036038101906102c49190611c5c565b610fca565b005b3480156102d757600080fd5b506102e0611068565b6040516102ed9190612034565b60405180910390f35b34801561030257600080fd5b5061031d60048036038101906103189190611d8e565b61106e565b60405161032a9190611edf565b60405180910390f35b34801561033f57600080fd5b5061035a60048036038101906103559190611d8e565b6110a1565b6040516103679190611fb9565b60405180910390f35b34801561037c57600080fd5b5061039760048036038101906103929190611de0565b6110c1565b6040516103a49190611f83565b60405180910390f35b3480156103b957600080fd5b506103c261143a565b6040516103cf9190612034565b60405180910390f35b3480156103e457600080fd5b506103ff60048036038101906103fa9190611d8e565b611440565b005b34801561040d57600080fd5b5061042860048036038101906104239190611d29565b6116e1565b6040516104359190612034565b60405180910390f35b34801561044a57600080fd5b5061046560048036038101906104609190611c85565b611712565b005b34801561047357600080fd5b5061048e60048036038101906104899190611c5c565b6117af565b60405161049b9190612034565b60405180910390f35b6104be60048036038101906104b99190611d8e565b6117c7565b005b3480156104cc57600080fd5b506104d56118d8565b6040516104e29190611edf565b60405180910390f35b6000806005600085815260200190815260200160002060006101000a81548160ff02191690836001811115610549577f4e487b7100000000000000000000000000000000000000000000000000000000600052602160045260246000fd5b0217905550836006600085815260200190815260200160002060006101000a81548173ffffffffffffffffffffffffffffffffffffffff021916908373ffffffffffffffffffffffffffffffffffffffff160217905550600960008573ffffffffffffffffffffffffffffffffffffffff1673ffffffffffffffffffffffffffffffffffffffff16815260200190815260200160002083908060018154018082558091505060019003906000526020600020016000909190919091505563150b7a0260e01b9050949350505050565b60076020528060005260406000206000915090505481565b600080600760003373ffffffffffffffffffffffffffffffffffffffff1673ffffffffffffffffffffffffffffffffffffffff1681526020019081526020016000205490508073feb090fcd433de479396e82db8b83a470dbad3c973ffffffffffffffffffffffffffffffffffffffff166370a08231306040518263ffffffff1660e01b81526004016106c39190611edf565b60206040518083038186803b1580156106db57600080fd5b505afa1580156106ef573d6000803e3d6000fd5b505050506040513d601f19601f820116820180604052508101906107139190611db7565b1015610c1557600073feb090fcd433de479396e82db8b83a470dbad3c973ffffffffffffffffffffffffffffffffffffffff166370a08231306040518263ffffffff1660e01b81526004016107689190611edf565b60206040518083038186803b15801561078057600080fd5b505afa158015610794573d6000803e3d6000fd5b505050506040513d601f19601f820116820180604052508101906107b89190611db7565b6107c06118fe565b6107ca9190612108565b905073c16b75aa166d94cc6a437e433d1c519bc1d89cc073ffffffffffffffffffffffffffffffffffffffff16634e71d92d6040518163ffffffff1660e01b8152600401600060405180830381600087803b15801561082857600080fd5b505af115801561083c573d6000803e3d6000fd5b505050506127108173feb090fcd433de479396e82db8b83a470dbad3c973ffffffffffffffffffffffffffffffffffffffff166370a08231306040518263ffffffff1660e01b81526004016108919190611edf565b60206040518083038186803b1580156108a957600080fd5b505afa1580156108bd573d6000803e3d6000fd5b505050506040513d601f19601f820116820180604052508101906108e19190611db7565b836108ec91906121e9565b6108f6919061215e565b610900919061218f565b600481905550600061271083600454610919919061218f565b610923919061215e565b90506000600760003373ffffffffffffffffffffffffffffffffffffffff1673ffffffffffffffffffffffffffffffffffffffff16815260200190815260200160002081905550600073feb090fcd433de479396e82db8b83a470dbad3c973ffffffffffffffffffffffffffffffffffffffff166370a08231306040518263ffffffff1660e01b81526004016109b99190611edf565b60206040518083038186803b1580156109d157600080fd5b505afa1580156109e5573d6000803e3d6000fd5b505050506040513d601f19601f82011682018060405250810190610a099190611db7565b9050808285610a1891906121e9565b1115610b095773feb090fcd433de479396e82db8b83a470dbad3c973ffffffffffffffffffffffffffffffffffffffff1663a9059cbb33836040518363ffffffff1660e01b8152600401610a6d929190611f15565b602060405180830381600087803b158015610a8757600080fd5b505af1158015610a9b573d6000803e3d6000fd5b505050506040513d601f19601f82011682018060405250810190610abf9190611d65565b507f56253d287efacdb2c4cd76dd03624a4821c1ce721d1152e8f5f5718f6087c9bf33858484604051610af59493929190611f3e565b60405180910390a180945050505050610d7f565b73feb090fcd433de479396e82db8b83a470dbad3c973ffffffffffffffffffffffffffffffffffffffff1663a9059cbb338487610b4691906121e9565b6040518363ffffffff1660e01b8152600401610b63929190611f15565b602060405180830381600087803b158015610b7d57600080fd5b505af1158015610b91573d6000803e3d6000fd5b505050506040513d601f19601f82011682018060405250810190610bb59190611d65565b507f56253d287efacdb2c4cd76dd03624a4821c1ce721d1152e8f5f5718f6087c9bf3385848588610be691906121e9565b604051610bf69493929190611f3e565b60405180910390a18184610c0a91906121e9565b945050505050610d7f565b600061271082600454610c28919061218f565b610c32919061215e565b90506000600760003373ffffffffffffffffffffffffffffffffffffffff1673ffffffffffffffffffffffffffffffffffffffff1681526020019081526020016000208190555073feb090fcd433de479396e82db8b83a470dbad3c973ffffffffffffffffffffffffffffffffffffffff1663a9059cbb338385610cb691906121e9565b6040518363ffffffff1660e01b8152600401610cd3929190611f15565b602060405180830381600087803b158015610ced57600080fd5b505af1158015610d01573d6000803e3d6000fd5b505050506040513d601f19601f82011682018060405250810190610d259190611d65565b507f56253d287efacdb2c4cd76dd03624a4821c1ce721d1152e8f5f5718f6087c9bf3383838486610d5691906121e9565b604051610d669493929190611f3e565b60405180910390a18082610d7a91906121e9565b925050505b90565b600160009054906101000a900473ffffffffffffffffffffffffffffffffffffffff1673ffffffffffffffffffffffffffffffffffffffff163373ffffffffffffffffffffffffffffffffffffffff1614610ddc57600080fd5b60006001811115610e16577f4e487b7100000000000000000000000000000000000000000000000000000000600052602160045260246000fd5b6005600083815260200190815260200160002060009054906101000a900460ff166001811115610e6f577f4e487b7100000000000000000000000000000000000000000000000000000000600052602160045260246000fd5b1415610edc5760016005600083815260200190815260200160002060006101000a81548160ff02191690836001811115610ed2577f4e487b7100000000000000000000000000000000000000000000000000000000600052602160045260246000fd5b0217905550610f3f565b60006005600083815260200190815260200160002060006101000a81548160ff02191690836001811115610f39577f4e487b7100000000000000000000000000000000000000000000000000000000600052602160045260246000fd5b02179055505b50565b60008054906101000a900473ffffffffffffffffffffffffffffffffffffffff1681565b600160009054906101000a900473ffffffffffffffffffffffffffffffffffffffff1673ffffffffffffffffffffffffffffffffffffffff163373ffffffffffffffffffffffffffffffffffffffff1614610fc057600080fd5b8060038190555050565b600160009054906101000a900473ffffffffffffffffffffffffffffffffffffffff1673ffffffffffffffffffffffffffffffffffffffff163373ffffffffffffffffffffffffffffffffffffffff161461102457600080fd5b80600160006101000a81548173ffffffffffffffffffffffffffffffffffffffff021916908373ffffffffffffffffffffffffffffffffffffffff16021790555050565b60045481565b60066020528060005260406000206000915054906101000a900473ffffffffffffffffffffffffffffffffffffffff1681565b60056020528060005260406000206000915054906101000a900460ff1681565b60006001808111156110fc577f4e487b7100000000000000000000000000000000000000000000000000000000600052602160045260246000fd5b6005600085815260200190815260200160002060009054906101000a900460ff166001811115611155577f4e487b7100000000000000000000000000000000000000000000000000000000600052602160045260246000fd5b14611195576040517f08c379a000000000000000000000000000000000000000000000000000000000815260040161118c90611ff4565b60405180910390fd5b73c16b75aa166d94cc6a437e433d1c519bc1d89cc073ffffffffffffffffffffffffffffffffffffffff1663ca39e5ef83856040518363ffffffff1660e01b81526004016111e4929190612078565b600060405180830381600087803b1580156111fe57600080fd5b505af1158015611212573d6000803e3d6000fd5b5050505060006112206118fe565b905060025481111561142e5760006006600086815260200190815260200160002060009054906101000a900473ffffffffffffffffffffffffffffffffffffffff1690506002548261127291906121e9565b600760008373ffffffffffffffffffffffffffffffffffffffff1673ffffffffffffffffffffffffffffffffffffffff168152602001908152602001600020546112bc9190612108565b600760008373ffffffffffffffffffffffffffffffffffffffff1673ffffffffffffffffffffffffffffffffffffffff16815260200190815260200160002081905550600860008273ffffffffffffffffffffffffffffffffffffffff1673ffffffffffffffffffffffffffffffffffffffff168152602001908152602001600020600081548092919061134f90612308565b9190505550816002819055507f70b8a90a952a5a6c1cb3871e1bb3076b628c0ae01c49d18d11ba9aff0f3dff85816002548461138b91906121e9565b600760008573ffffffffffffffffffffffffffffffffffffffff1673ffffffffffffffffffffffffffffffffffffffff16815260200190815260200160002054600860008673ffffffffffffffffffffffffffffffffffffffff1673ffffffffffffffffffffffffffffffffffffffff1681526020019081526020016000205460405161141b9493929190611f3e565b60405180910390a1600192505050611434565b60009150505b92915050565b60035481565b3373ffffffffffffffffffffffffffffffffffffffff166006600083815260200190815260200160002060009054906101000a900473ffffffffffffffffffffffffffffffffffffffff1673ffffffffffffffffffffffffffffffffffffffff16146114e1576040517f08c379a00000000000000000000000000000000000000000000000000000000081526004016114d890612014565b60405180910390fd5b6006600082815260200190815260200160002060006101000a81549073ffffffffffffffffffffffffffffffffffffffff021916905560005b600960003373ffffffffffffffffffffffffffffffffffffffff1673ffffffffffffffffffffffffffffffffffffffff1681526020019081526020016000208054905081101561158e578181141561157b5761157681336119a7565b61158e565b808061158690612308565b91505061151a565b5073a4d780f0c4ceb3787291894821516d55337a976873ffffffffffffffffffffffffffffffffffffffff1663095ea7b373a4d780f0c4ceb3787291894821516d55337a9768836040518363ffffffff1660e01b81526004016115f2929190611f15565b600060405180830381600087803b15801561160c57600080fd5b505af1158015611620573d6000803e3d6000fd5b5050505073a4d780f0c4ceb3787291894821516d55337a976873ffffffffffffffffffffffffffffffffffffffff1663af80632482336040518363ffffffff1660e01b815260040161167392919061204f565b600060405180830381600087803b15801561168d57600080fd5b505af11580156116a1573d6000803e3d6000fd5b505050507f8a4cb6579c04871af00ba6b39d1abd7eead3b6f5218a6bf644fd0a581f3499ee33826040516116d6929190611f15565b60405180910390a150565b600960205281600052604060002081815481106116fd57600080fd5b90600052602060002001600091509150505481565b600160009054906101000a900473ffffffffffffffffffffffffffffffffffffffff1673ffffffffffffffffffffffffffffffffffffffff163373ffffffffffffffffffffffffffffffffffffffff161461176c57600080fd5b806000806101000a81548173ffffffffffffffffffffffffffffffffffffffff021916908373ffffffffffffffffffffffffffffffffffffffff16021790555050565b60086020528060005260406000206000915090505481565b60035434101561180c576040517f08c379a000000000000000000000000000000000000000000000000000000000815260040161180390611fd4565b60405180910390fd5b60008054906101000a900473ffffffffffffffffffffffffffffffffffffffff1673ffffffffffffffffffffffffffffffffffffffff166108fc349081150290604051600060405180830381858888f19350505050158015611872573d6000803e3d6000fd5b5060016005600083815260200190815260200160002060006101000a81548160ff021916908360018111156118d0577f4e487b7100000000000000000000000000000000000000000000000000000000600052602160045260246000fd5b021790555050565b600160009054906101000a900473ffffffffffffffffffffffffffffffffffffffff1681565b60008073c16b75aa166d94cc6a437e433d1c519bc1d89cc073ffffffffffffffffffffffffffffffffffffffff16630103c92b306040518263ffffffff1660e01b815260040161194e9190611edf565b60206040518083038186803b15801561196657600080fd5b505afa15801561197a573d6000803e3d6000fd5b505050506040513d601f19601f8201168201806040525081019061199e9190611db7565b90508091505090565b600960008273ffffffffffffffffffffffffffffffffffffffff1673ffffffffffffffffffffffffffffffffffffffff1681526020019081526020016000206001600960008473ffffffffffffffffffffffffffffffffffffffff1673ffffffffffffffffffffffffffffffffffffffff16815260200190815260200160002080549050611a3591906121e9565b81548110611a6c577f4e487b7100000000000000000000000000000000000000000000000000000000600052603260045260246000fd5b9060005260206000200154600960008373ffffffffffffffffffffffffffffffffffffffff1673ffffffffffffffffffffffffffffffffffffffff1681526020019081526020016000208381548110611aee577f4e487b7100000000000000000000000000000000000000000000000000000000600052603260045260246000fd5b9060005260206000200181905550600960008273ffffffffffffffffffffffffffffffffffffffff1673ffffffffffffffffffffffffffffffffffffffff168152602001908152602001600020805480611b71577f4e487b7100000000000000000000000000000000000000000000000000000000600052603160045260246000fd5b600190038181906000526020600020016000905590555050565b6000611b9e611b99846120c6565b6120a1565b905082815260208101848484011115611bb657600080fd5b611bc18482856122c8565b509392505050565b600081359050611bd8816124ad565b92915050565b600081359050611bed816124c4565b92915050565b600081519050611c02816124db565b92915050565b600082601f830112611c1957600080fd5b8135611c29848260208601611b8b565b91505092915050565b600081359050611c41816124f2565b92915050565b600081519050611c56816124f2565b92915050565b600060208284031215611c6e57600080fd5b6000611c7c84828501611bc9565b91505092915050565b600060208284031215611c9757600080fd5b6000611ca584828501611bde565b91505092915050565b60008060008060808587031215611cc457600080fd5b6000611cd287828801611bc9565b9450506020611ce387828801611bc9565b9350506040611cf487828801611c32565b925050606085013567ffffffffffffffff811115611d1157600080fd5b611d1d87828801611c08565b91505092959194509250565b60008060408385031215611d3c57600080fd5b6000611d4a85828601611bc9565b9250506020611d5b85828601611c32565b9150509250929050565b600060208284031215611d7757600080fd5b6000611d8584828501611bf3565b91505092915050565b600060208284031215611da057600080fd5b6000611dae84828501611c32565b91505092915050565b600060208284031215611dc957600080fd5b6000611dd784828501611c47565b91505092915050565b60008060408385031215611df357600080fd5b6000611e0185828601611c32565b9250506020611e1285828601611c32565b9150509250929050565b611e258161222f565b82525050565b611e348161221d565b82525050565b611e4381612241565b82525050565b611e528161224d565b82525050565b611e61816122b6565b82525050565b6000611e746007836120f7565b9150611e7f8261241e565b602082019050919050565b6000611e976010836120f7565b9150611ea282612447565b602082019050919050565b6000611eba600c836120f7565b9150611ec582612470565b602082019050919050565b611ed9816122ac565b82525050565b6000602082019050611ef46000830184611e2b565b92915050565b6000602082019050611f0f6000830184611e1c565b92915050565b6000604082019050611f2a6000830185611e2b565b611f376020830184611ed0565b9392505050565b6000608082019050611f536000830187611e2b565b611f606020830186611ed0565b611f6d6040830185611ed0565b611f7a6060830184611ed0565b95945050505050565b6000602082019050611f986000830184611e3a565b92915050565b6000602082019050611fb36000830184611e49565b92915050565b6000602082019050611fce6000830184611e58565b92915050565b60006020820190508181036000830152611fed81611e67565b9050919050565b6000602082019050818103600083015261200d81611e8a565b9050919050565b6000602082019050818103600083015261202d81611ead565b9050919050565b60006020820190506120496000830184611ed0565b92915050565b60006040820190506120646000830185611ed0565b6120716020830184611e2b565b9392505050565b600060408201905061208d6000830185611ed0565b61209a6020830184611ed0565b9392505050565b60006120ab6120bc565b90506120b782826122d7565b919050565b6000604051905090565b600067ffffffffffffffff8211156120e1576120e06123de565b5b6120ea8261240d565b9050602081019050919050565b600082825260208201905092915050565b6000612113826122ac565b915061211e836122ac565b9250827fffffffffffffffffffffffffffffffffffffffffffffffffffffffffffffffff0382111561215357612152612351565b5b828201905092915050565b6000612169826122ac565b9150612174836122ac565b92508261218457612183612380565b5b828204905092915050565b600061219a826122ac565b91506121a5836122ac565b9250817fffffffffffffffffffffffffffffffffffffffffffffffffffffffffffffffff04831182151516156121de576121dd612351565b5b828202905092915050565b60006121f4826122ac565b91506121ff836122ac565b92508282101561221257612211612351565b5b828203905092915050565b60006122288261228c565b9050919050565b600061223a8261228c565b9050919050565b60008115159050919050565b60007fffffffff0000000000000000000000000000000000000000000000000000000082169050919050565b600081905061228782612499565b919050565b600073ffffffffffffffffffffffffffffffffffffffff82169050919050565b6000819050919050565b60006122c182612279565b9050919050565b82818337600083830152505050565b6122e08261240d565b810181811067ffffffffffffffff821117156122ff576122fe6123de565b5b80604052505050565b6000612313826122ac565b91507fffffffffffffffffffffffffffffffffffffffffffffffffffffffffffffffff82141561234657612345612351565b5b600182019050919050565b7f4e487b7100000000000000000000000000000000000000000000000000000000600052601160045260246000fd5b7f4e487b7100000000000000000000000000000000000000000000000000000000600052601260045260246000fd5b7f4e487b7100000000000000000000000000000000000000000000000000000000600052602160045260246000fd5b7f4e487b7100000000000000000000000000000000000000000000000000000000600052604160045260246000fd5b6000601f19601f8301169050919050565b7f7061792066656500000000000000000000000000000000000000000000000000600082015250565b7f4e4654206e6f7420556e6c6f636b656400000000000000000000000000000000600082015250565b7f4e6f7420796f7572204e46540000000000000000000000000000000000000000600082015250565b600281106124aa576124a96123af565b5b50565b6124b68161221d565b81146124c157600080fd5b50565b6124cd8161222f565b81146124d857600080fd5b50565b6124e481612241565b81146124ef57600080fd5b50565b6124fb816122ac565b811461250657600080fd5b5056fea264697066735822122099adc9e85c8369128bdc368b4f3c2798541eb970e029da0c5c30b6814ee42e7864736f6c63430008040033",
  "devdoc": {
    "kind": "dev",
    "methods": {},
    "version": 1
  },
  "userdoc": {
    "kind": "user",
    "methods": {},
    "version": 1
  },
  "storageLayout": {
    "storage": [
      {
        "astId": 1124,
        "contract": "contracts/MaticVerseFarmer.sol:MaticVerseFarmer",
        "label": "treasury",
        "offset": 0,
        "slot": "0",
        "type": "t_address_payable"
      },
      {
        "astId": 1126,
        "contract": "contracts/MaticVerseFarmer.sol:MaticVerseFarmer",
        "label": "admin",
        "offset": 0,
        "slot": "1",
        "type": "t_address"
      },
      {
        "astId": 1129,
        "contract": "contracts/MaticVerseFarmer.sol:MaticVerseFarmer",
        "label": "contractBalance",
        "offset": 0,
        "slot": "2",
        "type": "t_uint256"
      },
      {
        "astId": 1131,
        "contract": "contracts/MaticVerseFarmer.sol:MaticVerseFarmer",
        "label": "fee",
        "offset": 0,
        "slot": "3",
        "type": "t_uint256"
      },
      {
        "astId": 1134,
        "contract": "contracts/MaticVerseFarmer.sol:MaticVerseFarmer",
        "label": "feePercent",
        "offset": 0,
        "slot": "4",
        "type": "t_uint256"
      },
      {
        "astId": 1168,
        "contract": "contracts/MaticVerseFarmer.sol:MaticVerseFarmer",
        "label": "heroStates",
        "offset": 0,
        "slot": "5",
        "type": "t_mapping(t_uint256,t_enum(NFTState)1163)"
      },
      {
        "astId": 1172,
        "contract": "contracts/MaticVerseFarmer.sol:MaticVerseFarmer",
        "label": "ownership",
        "offset": 0,
        "slot": "6",
        "type": "t_mapping(t_uint256,t_address)"
      },
      {
        "astId": 1176,
        "contract": "contracts/MaticVerseFarmer.sol:MaticVerseFarmer",
        "label": "balances",
        "offset": 0,
        "slot": "7",
        "type": "t_mapping(t_address,t_uint256)"
      },
      {
        "astId": 1180,
        "contract": "contracts/MaticVerseFarmer.sol:MaticVerseFarmer",
        "label": "gamesWon",
        "offset": 0,
        "slot": "8",
        "type": "t_mapping(t_address,t_uint256)"
      },
      {
        "astId": 1185,
        "contract": "contracts/MaticVerseFarmer.sol:MaticVerseFarmer",
        "label": "playerHeros",
        "offset": 0,
        "slot": "9",
        "type": "t_mapping(t_address,t_array(t_uint256)dyn_storage)"
      }
    ],
    "types": {
      "t_address": {
        "encoding": "inplace",
        "label": "address",
        "numberOfBytes": "20"
      },
      "t_address_payable": {
        "encoding": "inplace",
        "label": "address payable",
        "numberOfBytes": "20"
      },
      "t_array(t_uint256)dyn_storage": {
        "base": "t_uint256",
        "encoding": "dynamic_array",
        "label": "uint256[]",
        "numberOfBytes": "32"
      },
      "t_enum(NFTState)1163": {
        "encoding": "inplace",
        "label": "enum MaticVerseFarmer.NFTState",
        "numberOfBytes": "1"
      },
      "t_mapping(t_address,t_array(t_uint256)dyn_storage)": {
        "encoding": "mapping",
        "key": "t_address",
        "label": "mapping(address => uint256[])",
        "numberOfBytes": "32",
        "value": "t_array(t_uint256)dyn_storage"
      },
      "t_mapping(t_address,t_uint256)": {
        "encoding": "mapping",
        "key": "t_address",
        "label": "mapping(address => uint256)",
        "numberOfBytes": "32",
        "value": "t_uint256"
      },
      "t_mapping(t_uint256,t_address)": {
        "encoding": "mapping",
        "key": "t_uint256",
        "label": "mapping(uint256 => address)",
        "numberOfBytes": "32",
        "value": "t_address"
      },
      "t_mapping(t_uint256,t_enum(NFTState)1163)": {
        "encoding": "mapping",
        "key": "t_uint256",
        "label": "mapping(uint256 => enum MaticVerseFarmer.NFTState)",
        "numberOfBytes": "32",
        "value": "t_enum(NFTState)1163"
      },
      "t_uint256": {
        "encoding": "inplace",
        "label": "uint256",
        "numberOfBytes": "32"
      }
    }
  }
}